:1000000002308A004F2A00008C20C4210000D63024
:10001000EC37721DA012CC3A00000C2B6F36F43076
:10002000EA320001D630EC37721DA012CC3A000142
:100030008C20EE3375366F00D630EC37721DA0126F
:10004000CC3A0000313084008313000803193628AD
:100050000130F800F701F70B2B28F80B2A284A305B
:10006000F700F70B31283428800B28280800380EB9
:10007000F039F7000F3008057704880000000814F5
:100080004128081008000808F700080E0F39F8008A
:1000900008008316081088100811831288100F308A
:1000A00083160805F038880083120815000008142C
:1000B000000043207808B800081000000814000071
:1000C00043207808B70008100F3083160805880011
:1000D0008312380EF700F030F70577083704F80080
:1000E0007808B700B71B4F28351C881035188814BE
:1000F0000000081100000810360EB7000F30B705D9
:100100003708B800372036080F39B700B800372055
:1001100008002830A8000C30A9000130AA000630E1
:10012000AB000810881008110F30831608058800EE
:100130000810881008110F308312B10022200130FE
:10014000A7002708033C031CAD280330B800372064
:100150000530B1002220A70AA1280230B8003720BC
:100160000530B1002220A7012708033C031CC42846
:1001700028302707840083130008AC00B5012C0841
:10018000B6004920A70AB4288A110A12672A320B3E
:10019000CA28CD284030B300CE28B3010130310247
:1001A000B30733088038B400B5013408B6004920DD
:1001B00008003008073A0319E7280B3A0319EC281E
:1001C000063A0319F428023A0319FA28FF280130E5
:1001D000B100B200C7200429B5010130B6004920A2
:1001E0000230B100222004290130B1000230B200F7
:1001F000C7200429B5011030B60049200429013078
:10020000B5003008B600492008000B08A7008B1382
:10021000831603178C170C140000000083120313BD
:10022000A71B8B1703170C087F39031959290313D0
:10023000A70003170D080313A80003170F080313E3
:10024000A9002708B000D920280803178D00031340
:10025000290803178F0003130B08AA008B138316BA
:1002600003178C170C140000000083120313AA1B41
:100270008B1703170C0D0E0D7F3903195929031322
:10028000A70003170D080313A80003170F08031393
:10029000A9002708B000D920280803178D000313F0
:1002A000290803178F008D0A03198F0A03130529E4
:1002B0000317031308000B08A8008B1383160317FA
:1002C0008C170C140000000083120313A81B8B175B
:1002D0000318922903170C087F390313A80003178A
:1002E0000D080313A90003170F080313AA00280819
:1002F000B000D920290803178D0003132A0803171B
:100300008F0003130B08AB008B13831603178C1796
:100310000C140000000083120313AB1B8B17A70BF8
:100320009229B12903170C0D0E0D7F390313A80074
:1003300003170D080313A90003170F080313AA00DE
:100340002808B000D920290803178D0003132A08B4
:1003500003178F008D0A03198F0A03100313A70BCD
:100360005B290800AF010408AE002F10831B2F1477
:10037000280EF038AA00AA07E23EAB00323EAD00DC
:1003800028080F39AB07AB07AD07E93EAC00AC0757
:10039000AC07270E0F39AC07AD07AC0DAD0DAD099D
:1003A000AD0D27080F39AD07AA0D0730A9000A3097
:1003B000AD07AC03031CD829AC07AB03031CDC2935
:1003C000AB07AA03031CE029AA07A903031CE4291D
:1003D00029308400831307302E052E1384072D3017
:1003E000040203192E170008F700031DFF292E1B16
:1003F000FF292E1A112AAE19FF292030022AAE1524
:100400002E123030F707A8010408A7002810831B1C
:1004100028147708B000D9202708840083132818EF
:100420008317840A2E1FEF2908001030AB00F70154
:10043000FA01A80CA70C031C232A2908F7070318A4
:10044000FA0A2A08FA07FA0CF70CF90CF80CAB0BAD
:10045000192A0800F801F901F701FA012C08031D17
:10046000342A2B0803194E2A1030AD000310A90DB1
:10047000AA0DF70DFA0D2C087A02031D412A2B084C
:100480007702031C4A2A2B08F702031CFA032C08E4
:10049000FA020314F80DF90DAD0B362A0800030813
:1004A0001F398300613083168F000F080317090876
:1004B000C039890003131F129F12003003178800F0
:1004C0008312870188018901831303138928831606
:1004D00003170908C039890003131F129F12013046
:1004E00003178800831203131F179F1783169F1784
:1004F00083121F149F149F187B2A83161E088312D1
:10050000A1001E08A2000130B100B200C7200430D3
:1005100003178D0000308F00031305210130B10057
:100520000230B200C720073003178D0000308F0063
:10053000031007300313A7005B211030840022084A
:10054000A8002108A700B2210230A700FA30B100AC
:100550002220A70BA62A2208A8002108A700AA018A
:100560000530A90015227908A8007808A7007908A5
:10057000AA007808A9000330AC00FF30AB002A22A3
:100580007908A6007808A5000130B100B200C720A4
:100590000D3003178D0000308F000313052101304B
:1005A000B1000230B200C720123003178D000030B6
:1005B0008F00031007300313A7005B211030840065
:1005C0002608A8002508A700B2210230A700FA30AB
:1005D000B1002220A70BE72A2208A8002108A700C3
:1005E0000130AA000E30A90015227908A800780869
:1005F000A7007908AA007808A9000330AC00FF30F2
:10060000AB002A227908A4007808A3000130B100C9
:10061000B200C720183003178D0000308F0003137D
:1006200005210130B1000230B200C7201C30031791
:100630008D0000308F00031007300313A7005B21EB
:10064000103084002408A8002308A700B22102303B
:10065000A700FA30B1002220A70B292B7A2A6300C9
:04400E00A42CFF3FA0
:00000001FF
;PIC16F887
;CRC=456A  CREATED="10-May-20 00:24"
