:1000000001308A00E92900000C2B6F36F430EA3207
:100010003A10252675008C20EE3375366F1DA01220
:10002000CC3A0000313084008313000803192628DD
:100030000130F800F701F70B1B28F80B1A284A309B
:10004000F700F70B21282428800B18280800380E09
:10005000F039F7000F300805770488000000081415
:100060003128081008000808F700080E0F39F800BA
:1000700008008316081088100811831288100F30AA
:1000800083160805F038880083120815000008144C
:10009000000033207808B8000810000008140000A1
:1000A00033207808B70008100F3083160805880041
:1000B0008312380EF700F030F70577083704F800A0
:1000C0007808B700B71B3F28351C881035188814EE
:1000D0000000081100000810360EB7000F30B705F9
:1000E0003708B800272036080F39B700B800272096
:1000F00008002830A8000C30A9000130AA00063002
:10010000AB000810881008110F308316080588000E
:100110000810881008110F308312B100122001302E
:10012000A7002708033C031C9D280330B8002720A4
:100130000530B1001220A70A91280230B80027200C
:100140000530B1001220A7012708033C031CB42886
:1001500028302707840083130008AC00B5012C0861
:10016000B6003920A70AA4288A110A12012A1030E1
:10017000AB00F701FA01A80CA70C031CC52829083D
:10018000F7070318FA0A2A08FA07FA0CF70CF90C11
:10019000F80CAB0BBB280800F801F901F701FA01D4
:1001A0002C08031DD6282B080319F0281030AD00A9
:1001B0000310A90DAA0DF70DFA0D2C087A02031DE4
:1001C000E3282B087702031CEC282B08F702031CFA
:1001D000FA032C08FA020314F80DF90DAD0BD82818
:1001E0000800320BF428F7284030B300F828B30198
:1001F00001303102B30733088038B400B501340848
:10020000B600392008003008073A031911290B3AC3
:1002100003191629063A03191E29023A031924293B
:1002200029290130B100B200F1202E29B501013099
:10023000B60039200230B10012202E290130B10061
:100240000230B200F1202E29B5011030B60039205D
:100250002E290130B5003008B600392008000B08FF
:10026000A8008B13831603178C170C1400000000D2
:1002700083120313A81B8B170318662903170C0896
:100280007F390313A80003170D080313A9000317F0
:100290000F080313AA002808B00003212908031738
:1002A0008D0003132A0803178F0003130B08AB00FC
:1002B0008B13831603178C170C1400000000831295
:1002C0000313AB1B8B17A70B6629852903170C0D8E
:1002D0000E0D7F390313A80003170D080313A9009F
:1002E00003170F080313AA002808B00003212908E8
:1002F00003178D0003132A0803178F008D0A0319B3
:100300008F0A03100313A70B2F290800AF0104085D
:10031000AE002F10831B2F14280EF038AA00AA0756
:10032000E23EAB00323EAD0028080F39AB07AB0709
:10033000AD07E93EAC00AC07AC07270E0F39AC07A0
:10034000AD07AC0DAD0DAD09AD0D27080F39AD07EB
:10035000AA0D0730A9000A30AD07AC03031CAC2975
:10036000AC07AB03031CB029AB07AA03031CB429D9
:10037000AA07A903031CB829293084008313073076
:100380002E052E1384072D30040203192E170008A2
:10039000F700031DD3292E1BD3292E1AE529AE19E8
:1003A000D3292030D629AE152E123030F707A801F8
:1003B0000408A7002810831B28147708B000032125
:1003C00027088400831328188317840A2E1FC32943
:1003D000080003081F398300613083168F000F085F
:1003E00003170908C039890003131F129F12003038
:1003F000031788008312870188018901831303137F
:100400007928831603170908C039890003131F12BE
:100410009F12013003178800831203131F179F17C1
:1004200083169F1783121F149F149F18152A831673
:100430001E088312A1001E08A2002208A80021089D
:10044000A700AA010530A900B7207908A8007808FC
:10045000A7007908AA007808A9000330AC00FF3093
:10046000AB00CC207908A4007808A3002208A800DB
:100470002108A7000130AA000E30A900B720790892
:10048000A8007808A7007908AA007808A900033016
:10049000AC00FF30AB00CC207908A6007808A5009E
:1004A0000130B100B200F120043003178D0000309C
:1004B0008F0003100A300313A7002F21103084008F
:1004C0002608A8002508A70086210130B1000230C7
:1004D000B200F1200B3003178D0000308F000310A5
:1004E00009300313A7002F21103084002408A8002E
:1004F0002308A70086216430B1001220142A63006B
:04400E00A42CFF3FA0
:00000001FF
;PIC16F887
;CRC=2E78  CREATED="09-May-20 23:40"
