:1000000001308A00E82900000C2B6F36F430EA3208
:100010003A10252675004137E73AEC373A10252685
:1000200075002F3084008313000803192528013040
:10003000F800F701F70B1A28F80B19284A30F700D7
:10004000F70B20282328800B17280800360EF039DC
:10005000F7000F30080577048800000008143028E6
:10006000081008000808F700080E0F39F80008000B
:100070008316081088100811831288100F30831619
:100080000805F038880083120815000008140000E5
:1000900032207808B6000810000008140000322052
:1000A0007808B50008100F30831608058800831201
:1000B000360EF700F030F70577083504F8007808B9
:1000C000B500B51B3E28331C881033188814000077
:1000D000081100000810340EB5000F30B5053508C2
:1000E000B600262034080F39B500B60026200800D7
:1000F0002830A4000C30A5000130A6000630A7006F
:100100000810881008110F308316080588000810A1
:10011000881008110F308312AF0011200130A300A6
:100120002308033C031C9C280330B600262005301E
:10013000AF001120A30A90280230B6002620053017
:10014000AF001120A3012308033C031CB328243073
:100150002307840083130008A800B3012808B40013
:100160003820A30AA3288A110A12002A300BB928C2
:10017000BC284030B100BD28B10101302F02B107C9
:1001800031088038B200B3013208B40038200800CA
:100190001030A900F701FA01A60CA50C031CD62803
:1001A0002708F7070318FA0A2808FA07FA0CF70CC9
:1001B000F90CF80CA90BCC280800F801F901F7019B
:1001C000FA012808031DE728270803190129103020
:1001D000A9000310A50DA60DF70DFA0D28087A0247
:1001E000031DF42827087702031CFD282708F702BF
:1001F000031CFA032808FA020314F80DF90DA90BE1
:10020000E92808002E08073A031910290B3A0319A8
:100210001529063A03191D29023A03192329282909
:100220000130AF00B000B6202D29B3010130B40079
:1002300038200230AF0011202D290130AF000230EC
:10024000B000B6202D29B3011030B40038202D297C
:100250000130B3002E08B400382008000B08A600B7
:100260008B13831603178C170C14000000008312E5
:100270000313A61B8B170318652903170C087F3976
:100280000313A60003170D080313A70003170F0895
:100290000313A8002608AE000221270803178D00CB
:1002A0000313280803178F0003130B08A9008B13EF
:1002B000831603178C170C1400000000831203131D
:1002C000A91B8B17A50B6529842903170C0D0E0D8F
:1002D0007F390313A60003170D080313A7000317A4
:1002E0000F080313A8002608AE00022127080317F1
:1002F0008D000313280803178F008D0A03198F0A36
:1003000003100313A50B2E290800AD010408AC004F
:100310002D10831B2D14260EF038A800A807E23EEE
:10032000A900323EAB0026080F39A907A907AB0781
:10033000E93EAA00AA07AA07250E0F39AA07AB07AC
:10034000AA0DAB0DAB09AB0D25080F39AB07A80DF6
:100350000730A7000A30AB07AA03031CAB29AA0782
:10036000A903031CAF29A907A803031CB329A807E5
:10037000A703031CB72927308400831307302C05FB
:100380002C1384072B30040203192C170008F700E4
:10039000031DD2292C1BD2292C1AE429AC19D229ED
:1003A0002030D529AC152C123030F707A6010408EF
:1003B000A5002610831B26147708AE00022125080D
:1003C0008400831326188317840A2C1FC22908006F
:1003D00003081F398300613083168F000F0803174D
:1003E0000908C039890003131F129F120030031738
:1003F00088008312870188018901831303137828F9
:10040000831603170908C039890003131F129F12AE
:10041000013003178800831203131F179F178316D9
:100420009F1783121F149F149F18142A83161E08E7
:100430008312A1001E08A2000130AF00B000B62058
:100440002208A6002108A500A8010530A700C820A1
:100450007908A4007808A3007908A6007808A50008
:100460000330A800FF30A700DD207908A400780839
:10047000A300043003178D0000308F0003100A30F2
:100480000313A5002E21103084002408A6002308A1
:10049000A50085210130AF000230B000B62022084F
:1004A000A6002108A5000330A800FF30A700DD202A
:1004B0007908A4007808A3007908A6007808A500A8
:1004C0000130A8000E30A700C8207908A4007808E1
:1004D000A3000B3003178D0000308F00031008308D
:1004E0000313A5002E21103084002408A600230841
:0E04F000A50085216430AF001120132A63009F
:04400E00A42CFF3FA0
:00000001FF
;PIC16F887
;CRC=AD61  CREATED="10-May-20 00:59"
