:1000000001308A00E82900000C2B6F36F430EA3208
:100010003A10252675004137E73AEC373A10252685
:10002000750031308400831300080319252801303E
:10003000F800F701F70B1A28F80B19284A30F700D7
:10004000F70B20282328800B17280800380EF039DA
:10005000F7000F30080577048800000008143028E6
:10006000081008000808F700080E0F39F80008000B
:100070008316081088100811831288100F30831619
:100080000805F038880083120815000008140000E5
:1000900032207808B8000810000008140000322050
:1000A0007808B70008100F308316080588008312FF
:1000B000380EF700F030F70577083704F8007808B5
:1000C000B700B71B3E28351C88103518881400006F
:1000D000081100000810360EB7000F30B7053708BA
:1000E000B800262036080F39B700B80026200800CF
:1000F0002830A8000C30A9000130AA000630AB005F
:100100000810881008110F308316080588000810A1
:10011000881008110F308312B10011200130A700A0
:100120002708033C031C9C280330B8002620053018
:10013000B1001120A70A90280230B800262005300F
:10014000B1001120A7012708033C031CB328283065
:100150002707840083130008AC00B5012C08B60003
:100160003820A70AA3288A110A12002A1030AD00ED
:10017000F701FA01AA0CA90C031CC4282B08F707E5
:100180000318FA0A2C08FA07FA0CF70CF90CF80C09
:10019000AD0BBA280800F801F901F701FA012C08A3
:1001A000031DD5282B080319EF281030AD000310CC
:1001B000A90DAA0DF70DFA0D2C087A02031DE228ED
:1001C0002B087702031CEB282B08F702031CFA0309
:1001D0002C08FA020314F80DF90DAD0BD72808000E
:1001E000320BF328F6284030B300F728B301013072
:1001F0003102B30733088038B400B5013408B600C3
:10020000382008003008073A031910290B3A03195F
:100210001529063A03191D29023A03192329282909
:100220000130B100B200F0202D29B5010130B60037
:1002300038200230B10011202D290130B1000230E8
:10024000B200F0202D29B5011030B60038202D293C
:100250000130B5003008B600382008000B08A800AF
:100260008B13831603178C170C14000000008312E5
:100270000313A81B8B170318652903170C087F3974
:100280000313A80003170D080313A90003170F0891
:100290000313AA002808B0000221290803178D00C3
:1002A00003132A0803178F0003130B08AB008B13EB
:1002B000831603178C170C1400000000831203131D
:1002C000AB1B8B17A70B6529842903170C0D0E0D8B
:1002D0007F390313A80003170D080313A9000317A0
:1002E0000F080313AA002808B000022129080317E9
:1002F0008D0003132A0803178F008D0A03198F0A34
:1003000003100313A70B2E290800AF010408AE0049
:100310002F10831B2F14280EF038AA00AA07E23EE4
:10032000AB00323EAD0028080F39AB07AB07AD0775
:10033000E93EAC00AC07AC07270E0F39AC07AD07A0
:10034000AC0DAD0DAD09AD0D27080F39AD07AA0DE8
:100350000730A9000A30AD07AC03031CAB29AC077A
:10036000AB03031CAF29AB07AA03031CB329AA07DD
:10037000A903031CB72929308400831307302E05F5
:100380002E1384072D30040203192E170008F700DE
:10039000031DD2292E1BD2292E1AE429AE19D229E7
:1003A0002030D529AE152E123030F707A8010408E9
:1003B000A7002810831B28147708B0000221270803
:1003C0008400831328188317840A2E1FC22908006B
:1003D00003081F398300613083168F000F0803174D
:1003E0000908C039890003131F129F120030031738
:1003F00088008312870188018901831303137828F9
:10040000831603170908C039890003131F129F12AE
:10041000013003178800831203131F179F178316D9
:100420009F1783121F149F149F18142A83161E08E7
:100430008312A1001E08A2002208AA002108A90018
:10044000AC010530AB00B6207908A8007808A700F9
:100450007908AA007808A9000330AC00FF30AB008F
:10046000CB207908A4007808A3000130B100B200C5
:10047000F020043003178D0000308F0003100A3085
:100480000313A7002E21103084002408A80023089D
:10049000A70085212208AA002108A900AC01363056
:1004A000AB00B6207908A8007808A7007908AA0050
:1004B0007808A9000330AC00FF30AB00CB207908EE
:1004C000A8007808A7007908AA007808A900AC015C
:1004D0000530AB00B6207908A6007808A5000130E9
:1004E000B1000230B200F0200B3003178D00003055
:1004F0008F00031008300313A7002E211030840052
:100500002608A8002508A70085216430B100112025
:04051000132A630047
:04400E00A42CFF3FA0
:00000001FF
;PIC16F887
;CRC=471F  CREATED="10-May-20 01:35"
