:1000000002308A000A2A00000C26E531F43AF23068
:10001000A020C4210000D630EC37721DA012CC3ACB
:1000200000002D30840083130008031925280130B7
:10003000F800F701F70B1A28F80B19284A30F700D7
:10004000F70B20282328800B17280800340EF039DE
:10005000F7000F30080577048800000008143028E6
:10006000081008000808F700080E0F39F80008000B
:100070008316081088100811831288100F30831619
:100080000805F038880083120815000008140000E5
:1000900032207808B4000810000008140000322054
:1000A0007808B30008100F30831608058800831203
:1000B000340EF700F030F70577083304F8007808BD
:1000C000B300B31B3E28311C88103118881400007F
:1000D000081100000810320EB3000F30B3053308CA
:1000E000B400262032080F39B300B40026200800DF
:1000F0002830A4000C30A5000130A6000630A7006F
:100100000810881008110F308316080588000810A1
:10011000881008110F308312AD0011200130A300A8
:100120002308033C031C9C280330B4002620053020
:10013000AD001120A30A90280230B400262005301B
:10014000AD001120A3012308033C031CB328243075
:100150002307840083130008A800B1012808B20017
:100160003820A30AA3288A110A12222A2E0BB928A2
:10017000BC284030AF00BD28AF0101302D02AF07D1
:100180002F088038B000B1013008B20038200800D4
:100190002C08073A0319D6280B3A0319DB28063A2C
:1001A0000319E328023A0319E928EE280130AD00CB
:1001B000AE00B620F328B1010130B2003820023081
:1001C000AD001120F3280130AD000230AE00B620A2
:1001D000F328B1011030B2003820F3280130B1000B
:1001E0002C08B200382008000B08A3008B138316DC
:1001F00003178C170C140000000083120313A31BB9
:100200008B1703170C087F39031948290313A30020
:1002100003170D080313A40003170F080313A50009
:100220002308AC00C820240803178D0003132508F9
:1002300003178F0003130B08A6008B1383160317F5
:100240008C170C140000000083120313A61B8B17DD
:1002500003170C0D0E0D7F39031948290313A30052
:1002600003170D080313A40003170F080313A500B9
:100270002308AC00C820240803178D0003132508A9
:1002800003178F008D0A03198F0A0313F42803172D
:1002900003138A110A12492A0B08A4008B13831630
:1002A00003178C170C140000000083120313A41B07
:1002B0008B170318832903170C087F390313A40035
:1002C00003170D080313A50003170F080313A60057
:1002D0002408AC00C820250803178D000313260846
:1002E00003178F0003130B08A7008B138316031744
:1002F0008C170C140000000083120313A71B8B172C
:10030000A30B8329A22903170C0D0E0D7F390313AC
:10031000A40003170D080313A50003170F08031308
:10032000A6002408AC00C820250803178D0003137D
:10033000260803178F008D0A03198F0A0310031371
:10034000A30B4C298A110A12582AAB010408AA00EF
:100350002B10831B2B14240EF038A600A607E23EB8
:10036000A700323EA90024080F39A707A707A9074D
:10037000E93EA800A807A807230E0F39A807A90778
:10038000A80DA90DA909A90D23080F39A907A60DC4
:100390000730A5000A30A907A803031CCB29A8072A
:1003A000A703031CCF29A707A603031CD329A6076D
:1003B000A503031CD72925308400831307302A05A1
:1003C0002A1384072930040203192A170008F700AA
:1003D000031DF2292A1BF2292A1A042AAA19F22932
:1003E0002030F529AA152A123030F707A401040895
:1003F000A3002410831B24147708AC00C820230812
:100400008400831324188317840A2A1FE2298A117F
:100410000A125F2A03081F398300613083168F0098
:100420000F0803170908C039890003131F129F1210
:100430000030031788008312870188018901831324
:1004400003137828831603170908C039890003139A
:100450001F129F12083003178800831203131F17FF
:100460009F1783169F1783121F149F149F18362AF5
:1004700083161E088312A1001E08A2000130AD00E1
:10048000AE00B620043003178D0000308F00031338
:10049000F4280130AD000230AE00B6200B30031757
:1004A0008D0000308F00031007300313A3004C2988
:1004B000103084002208A4002108A300A52964307C
:0804C000AD001120352A630094
:04400E00A42CFF3FA0
:00000001FF
;PIC16F887
;CRC=316F  CREATED="09-May-20 23:21"
