:1000000002308A00922A00000C2B6F36F430EA325C
:100010003A10252675004137E73AEC373A10252685
:100020007500363084008313000803192528013039
:10003000F800F701F70B1A28F80B19284A30F700D7
:10004000F70B20282328800B172808003D0EF039D5
:10005000F7000F30080577048800000008143028E6
:10006000081008000808F700080E0F39F80008000B
:100070008316081088100811831288100F30831619
:100080000805F038880083120815000008140000E5
:1000900032207808BD00081000000814000032204B
:1000A0007808BC0008100F308316080588008312FA
:1000B0003D0EF700F030F70577083C04F8007808AB
:1000C000BC00BC1B3E283A1C88103A18881400005B
:1000D0000811000008103B0EBC000F30BC053C08A6
:1000E000BD0026203B080F39BC00BD0026200800BB
:1000F0002830AA000C30AB000130AC000630AD0057
:100100000810881008110F308316080588000810A1
:10011000881008110F308312B60011200130A90099
:100120002908033C031C9C280330BD002620053011
:10013000B6001120A90A90280230BD002620053003
:10014000B6001120A9012908033C031CB3282A305A
:100150002907840083130008AE00BA012E08BB00F3
:100160003820A90AA3288A110A12AA2A1030AD0041
:10017000F701FA01AA0CA90C031CC4282B08F707E5
:100180000318FA0A2C08FA07FA0CF70CF90CF80C09
:10019000AD0BBA280800F801F901F701FA012E08A1
:1001A000031DD5282D080319EF281030AF000310C8
:1001B000AB0DAC0DF70DFA0D2E087A02031DE228E7
:1001C0002D087702031CEB282D08F702031CFA0305
:1001D0002E08FA020314F80DF90DAF0BD72808000A
:1001E000370BF328F6284030B800F728B801013063
:1001F0003602B80738088038B900BA013908BB00A0
:10020000382008003508073A031910290B3A03195A
:100210001529063A03191D29023A03192329282909
:100220000130B600B700F0202D29BA010130BB0023
:1002300038200230B60011202D290130B6000230DE
:10024000B700F0202D29BA011030BB0038202D292D
:100250000130BA003508BB00382008000B08AA009E
:100260008B13831603178C170C14000000008312E5
:100270000313AA1B8B170318652903170C087F3972
:100280000313AA0003170D080313AB0003170F088D
:100290000313AC002A08B50002212B0803178D00B8
:1002A00003132C0803178F0003130B08AD008B13E7
:1002B000831603178C170C1400000000831203131D
:1002C000AD1B8B17A90B6529842903170C0D0E0D87
:1002D0007F390313AA0003170D080313AB0003179C
:1002E0000F080313AC002A08B50002212B080317DE
:1002F0008D0003132C0803178F008D0A03198F0A32
:1003000003100313A90B2E290800B1010408B00043
:100310003110831B31142A0EF038AC00AC07E23EDA
:10032000AD00323EAF002A080F39AD07AD07AF0769
:10033000E93EAE00AE07AE07290E0F39AE07AF0794
:10034000AE0DAF0DAF09AF0D29080F39AF07AC0DDA
:100350000730AB000A30AF07AE03031CAB29AE0772
:10036000AD03031CAF29AD07AC03031CB329AC07D5
:10037000AB03031CB7292B308400831307303005EF
:10038000301384072F300402031930170008F700D8
:10039000031DD229301BD229301AE429B019D229E1
:1003A0002030D529B01530123030F707AA010408E3
:1003B000A9002A10831B2A147708B50002212908F6
:1003C000840083132A188317840A301FC2298A11D4
:1003D0000A12F42A8318EF293D3084008313F701B1
:1003E000F801F901FA01BD01BE01BF01C0013C08DD
:1003F0003B043A04390403192D2A2030C1000310AC
:10040000B50DB60DB70DB80DBD0DBE0DBF0DC00DB0
:100410003C084002031D162A3B083F02031D162A12
:100420003A083E02031D162A39083D02031C272AFA
:100430003908BD023A08031C3A0FBE023B08031CF0
:100440003B0FBF023C08031C3C0FC0020314F70D16
:10045000F80DF90DFA0DC10BFF293D088000840A43
:100460003E088000840A3F088000840A400880001B
:1004700008000408AD003B30B4009A30B300CA3025
:10048000B200B1010A30AF00831429308400831315
:100490002C08B8002B08B7002A08B6002908B500B8
:1004A0003408BC003308BB003208BA003108B90078
:1004B000EA217808F708031D702A2F08013A03196A
:1004C000702A2D080319712A0F392F0203196A2A7D
:1004D0000318762AAD1B762A2D1B712A2030722A2A
:1004E000AD013030F7077708B500022183103408DA
:1004F000B8003308B7003208B6003108B500BC01B7
:10050000BB01BA010A30B900EA217A08B4007908BF
:10051000B3007808B2007708B100AF0B442A8A1103
:100520000A122A2B03081F398300613083168F00BB
:100530000F0803170908C039890003131F129F12FF
:100540000030031788008312870188018901831313
:1005500003137828831603170908C0398900031389
:100560001F129F12013003178800831203131F17F5
:100570009F1783169F1783121F149F149F18BE2A5C
:1005800083161E088312A1001E08A2002208AA00DA
:100590002108A900AC010530AB00B6207908AA00FB
:1005A0007808A9007908AC007808AB000330AE00E9
:1005B000FF30AD00CB207908A4007808A3000130FB
:1005C000B600B700F020043003178D0000308F0014
:1005D00003100A300313A9002E21103084002408D0
:1005E000AA002308A90085292208AA002108A90039
:1005F0000130AC000E30AB00B6207908AA007808B4
:10060000A9007908AC007808AB000330AE00FF30D9
:10061000AD00CB20A801A7017908A6007808A500A5
:100620000130B6000230B700F0200B3003178D0008
:1006300000308F00031008300313A9002E21413031
:1006400084002808AC002708AB002608AA0025086B
:0E065000A900392A6430B6001120BD2A6300CB
:04400E00A42CFF3FA0
:00000001FF
;PIC16F887
;CRC=AD3C  CREATED="11-May-20 16:37"
