:1000000001308A00E82900000C2B6F36F430EA3208
:100010003A10252675004137E73AEC373A10252685
:10002000750033308400831300080319252801303C
:10003000F800F701F70B1A28F80B19284A30F700D7
:10004000F70B20282328800B172808003A0EF039D8
:10005000F7000F30080577048800000008143028E6
:10006000081008000808F700080E0F39F80008000B
:100070008316081088100811831288100F30831619
:100080000805F038880083120815000008140000E5
:1000900032207808BA00081000000814000032204E
:1000A0007808B90008100F308316080588008312FD
:1000B0003A0EF700F030F70577083904F8007808B1
:1000C000B900B91B3E28371C881037188814000067
:1000D000081100000810380EB9000F30B9053908B2
:1000E000BA00262038080F39B900BA0026200800C7
:1000F0002830AA000C30AB000130AC000630AD0057
:100100000810881008110F308316080588000810A1
:10011000881008110F308312B30011200130A9009C
:100120002908033C031C9C280330BA002620053014
:10013000B3001120A90A90280230BA002620053009
:10014000B3001120A9012908033C031CB3282A305D
:100150002907840083130008AE00B7012E08B800F9
:100160003820A90AA3288A110A12002A1030AF00E9
:10017000F701FA01AC0CAB0C031CC4282D08F707DF
:100180000318FA0A2E08FA07FA0CF70CF90CF80C07
:10019000AF0BBA280800F801F901F701FA012E089F
:1001A000031DD5282D080319EF281030AF000310C8
:1001B000AB0DAC0DF70DFA0D2E087A02031DE228E7
:1001C0002D087702031CEB282D08F702031CFA0305
:1001D0002E08FA020314F80DF90DAF0BD72808000A
:1001E000340BF328F6284030B500F728B50101306C
:1001F0003302B50735088038B600B7013608B800B5
:10020000382008003208073A031910290B3A03195D
:100210001529063A03191D29023A03192329282909
:100220000130B300B400F0202D29B7010130B8002F
:1002300038200230B30011202D290130B3000230E4
:10024000B400F0202D29B7011030B80038202D2936
:100250000130B7003208B800382008000B08AA00A7
:100260008B13831603178C170C14000000008312E5
:100270000313AA1B8B170318652903170C087F3972
:100280000313AA0003170D080313AB0003170F088D
:100290000313AC002A08B20002212B0803178D00BB
:1002A00003132C0803178F0003130B08AD008B13E7
:1002B000831603178C170C1400000000831203131D
:1002C000AD1B8B17A90B6529842903170C0D0E0D87
:1002D0007F390313AA0003170D080313AB0003179C
:1002E0000F080313AC002A08B20002212B080317E1
:1002F0008D0003132C0803178F008D0A03198F0A32
:1003000003100313A90B2E290800B1010408B00043
:100310003110831B31142A0EF038AC00AC07E23EDA
:10032000AD00323EAF002A080F39AD07AD07AF0769
:10033000E93EAE00AE07AE07290E0F39AE07AF0794
:10034000AE0DAF0DAF09AF0D29080F39AF07AC0DDA
:100350000730AB000A30AF07AE03031CAB29AE0772
:10036000AD03031CAF29AD07AC03031CB329AC07D5
:10037000AB03031CB7292B308400831307303005EF
:10038000301384072F300402031930170008F700D8
:10039000031DD229301BD229301AE429B019D229E1
:1003A0002030D529B01530123030F707AA010408E3
:1003B000A9002A10831B2A147708B20002212908F9
:1003C000840083132A188317840A301FC229080067
:1003D00003081F398300613083168F000F0803174D
:1003E0000908C039890003131F129F120030031738
:1003F00088008312870188018901831303137828F9
:10040000831603170908C039890003131F129F12AE
:10041000013003178800831203131F179F178316D9
:100420009F1783121F149F149F18142A83161E08E7
:100430008312A1001E08A2002208AC002108AB0014
:10044000AE010530AD00B6207908AA007808A900F1
:100450007908AC007808AB000330AE00FF30AD0087
:10046000CB207908A6007808A5000130B300B400BD
:10047000F020043003178D0000308F0003100A3085
:100480000313A9002E21103084002608AA00250895
:10049000A90085219F149F184B2A83161E088312DA
:1004A000A3001E08A4002408AC002308AB00AE0182
:1004B0003630AD00B6207908AA007808A90079087E
:1004C000AC007808AB000330AE00FF30AD00CB20AD
:1004D0007908AA007808A9007908AC007808AB0070
:1004E000AE010530AD00B6207908A8007808A70055
:1004F0000130B3000230B400F0200B3003178D0040
:1005000000308F00031008300313A9002E21103093
:1005100084002808AA002708A90085216430B300B8
:060520001120132A630004
:04400E00A42CFF3FA0
:00000001FF
;PIC16F887
;CRC=9991  CREATED="10-May-20 01:23"
