:1000000001308A00E82900000C2B6F36F430EA3208
:100010003A10252675004137E73AEC373A10252685
:10002000750033308400831300080319252801303C
:10003000F800F701F70B1A28F80B19284A30F700D7
:10004000F70B20282328800B172808003A0EF039D8
:10005000F7000F30080577048800000008143028E6
:10006000081008000808F700080E0F39F80008000B
:100070008316081088100811831288100F30831619
:100080000805F038880083120815000008140000E5
:1000900032207808BA00081000000814000032204E
:1000A0007808B90008100F308316080588008312FD
:1000B0003A0EF700F030F70577083904F8007808B1
:1000C000B900B91B3E28371C881037188814000067
:1000D000081100000810380EB9000F30B9053908B2
:1000E000BA00262038080F39B900BA0026200800C7
:1000F0002830A8000C30A9000130AA000630AB005F
:100100000810881008110F308316080588000810A1
:10011000881008110F308312B30011200130A7009E
:100120002708033C031C9C280330BA002620053016
:10013000B3001120A70A90280230BA00262005300B
:10014000B3001120A7012708033C031CB328283063
:100150002707840083130008AC00B7012C08B800FF
:100160003820A70AA3288A110A12002A340BB928BA
:10017000BC284030B500BD28B50101303302B507B9
:1001800035088038B600B7013608B80038200800B6
:100190001030AD00F701FA01AA0CA90C031CD628F7
:1001A0002B08F7070318FA0A2C08FA07FA0CF70CC1
:1001B000F90CF80CAD0BCC280800F801F901F70197
:1001C000FA012C08031DE7282B0803190129103018
:1001D000AD000310A90DAA0DF70DFA0D2C087A0237
:1001E000031DF4282B087702031CFD282B08F702B7
:1001F000031CFA032C08FA020314F80DF90DAD0BD9
:10020000E92808003208073A031910290B3A0319A4
:100210001529063A03191D29023A03192329282909
:100220000130B300B400B6202D29B7010130B80069
:1002300038200230B30011202D290130B3000230E4
:10024000B400B6202D29B7011030B80038202D2970
:100250000130B7003208B800382008000B08AA00A7
:100260008B13831603178C170C14000000008312E5
:100270000313AA1B8B170318652903170C087F3972
:100280000313AA0003170D080313AB0003170F088D
:100290000313AC002A08B20002212B0803178D00BB
:1002A00003132C0803178F0003130B08AD008B13E7
:1002B000831603178C170C1400000000831203131D
:1002C000AD1B8B17A90B6529842903170C0D0E0D87
:1002D0007F390313AA0003170D080313AB0003179C
:1002E0000F080313AC002A08B20002212B080317E1
:1002F0008D0003132C0803178F008D0A03198F0A32
:1003000003100313A90B2E290800B1010408B00043
:100310003110831B31142A0EF038AC00AC07E23EDA
:10032000AD00323EAF002A080F39AD07AD07AF0769
:10033000E93EAE00AE07AE07290E0F39AE07AF0794
:10034000AE0DAF0DAF09AF0D29080F39AF07AC0DDA
:100350000730AB000A30AF07AE03031CAB29AE0772
:10036000AD03031CAF29AD07AC03031CB329AC07D5
:10037000AB03031CB7292B308400831307303005EF
:10038000301384072F300402031930170008F700D8
:10039000031DD229301BD229301AE429B019D229E1
:1003A0002030D529B01530123030F707AA010408E3
:1003B000A9002A10831B2A147708B20002212908F9
:1003C000840083132A188317840A301FC229080067
:1003D00003081F398300613083168F000F0803174D
:1003E0000908C039890003131F129F120030031738
:1003F00088008312870188018901831303137828F9
:10040000831603170908C039890003131F129F12AE
:10041000013003178800831203131F179F178316D9
:100420009F1783121F149F149F18142A83161E08E7
:100430008312A1001E08A2000130B300B400B62050
:100440002208AA002108A900AC010530AB00C82091
:100450007908A8007808A7007908AA007808A900F8
:100460000330AC00FF30AB00DD207908A80078082D
:10047000A700043003178D0000308F0003100A30EE
:100480000313A9002E21103084002808AA00270891
:10049000A90085210130B3000230B400B620220843
:1004A000AA002108A9000330AC00FF30AB00DD201A
:1004B0007908A8007808A7007908AA007808A90098
:1004C0000130AC000E30AB00C8207908A8007808D5
:1004D000A7000B3003178D0000308F000310083089
:1004E0000313A9002E21103084002808AA00270831
:0E04F000A90085216430B3001120132A630097
:04400E00A42CFF3FA0
:00000001FF
;PIC16F887
;CRC=88DB  CREATED="10-May-20 00:51"
