:1000000002308A001B2A00000C2B6F36F430EA32D3
:100010003A10252675004137E73AEC373A10252685
:1000200075003A3084008313000803192528013035
:10003000F800F701F70B1A28F80B19284A30F700D7
:10004000F70B20282328800B17280800410EF039D1
:10005000F7000F30080577048800000008143028E6
:10006000081008000808F700080E0F39F80008000B
:100070008316081088100811831288100F30831619
:100080000805F038880083120815000008140000E5
:1000900032207808C1000810000008140000322047
:1000A0007808C00008100F308316080588008312F6
:1000B000410EF700F030F70577084004F8007808A3
:1000C000C000C01B3E283E1C88103E18881400004B
:1000D0000811000008103F0EC0000F30C005400896
:1000E000C10026203F080F39C000C10026200800AB
:1000F0002830AE000C30AF000130B0000630B10047
:100100000810881008110F308316080588000810A1
:10011000881008110F308312BA0011200130AD0091
:100120002D08033C031C9C280330C1002620053009
:10013000BA001120AD0A90280230C10026200530F7
:10014000BA001120AD012D08033C031CB3282E304A
:100150002D07840083130008B200BE013208BF00DF
:100160003820AD0AA3288A110A12332A2030B90098
:10017000B501B601B701B8013008FA002F08F9003F
:100180002E08F8002D08F7000310771CD528310839
:10019000B50732080318320FB60733080318330FB8
:1001A000B70734080318340FB807B80CB70CB60CEF
:1001B000B50CFA0CF90CF80CF70CB90BC4280800B4
:1001C0008318E528413084008313F701F801F90111
:1001D000FA01C101C201C301C40140083F043E0449
:1001E0003D04031923292030C5000310B90DBA0DB1
:1001F000BB0DBC0DC10DC20DC30DC40D40084402A2
:10020000031D0C293F084302031D0C293E0842022E
:10021000031D0C293D084102031C1D293D08C10294
:100220003E08031C3E0FC2023F08031C3F0FC302DF
:100230004008031C400FC4020314F70DF80DF90D1C
:10024000FA0DC50BF52841088000840A4208800099
:10025000840A43088000840A4408800008003B0B9D
:10026000322935294030BC003629BC0101303A0220
:10027000BC073C088038BD00BE013D08BF003820E7
:1002800008003908073A03194F290B3A0319542972
:10029000063A03195C29023A0319622967290130D9
:1002A000BA00BB002F216C29BE010130BF003820ED
:1002B0000230BA0011206C290130BA000230BB00B4
:1002C0002F216C29BE011030BF0038206C2901306D
:1002D000BE003908BF00382008000B08AE008B13A1
:1002E000831603178C170C140000000083120313ED
:1002F000AE1B8B170318A42903170C087F390313AF
:10030000AE0003170D080313AF0003170F08031304
:10031000B0002E08B90041212F0803178D000313E8
:10032000300803178F0003130B08B1008B138316DB
:1003300003178C170C140000000083120313B11B69
:100340008B17AD0BA429C32903170C0D0E0D7F3994
:100350000313AE0003170D080313AF0003170F08B4
:100360000313B0002E08B90041212F0803178D0098
:100370000313300803178F008D0A03198F0A031027
:100380000313AD0B6D2908000408B1003B30B80021
:100390009A30B700CA30B600B5010A30B3008314F2
:1003A0002D30840083133008BC002F08BB002E08BA
:1003B000BA002D08B9003808C0003708BF00360859
:1003C000BE003508BD00E0207808F708031DFB29B2
:1003D0003308013A0319FB2931080319FC290F39A5
:1003E00033020319F5290318012AB11B012A311B15
:1003F000FC292030FD29B1013030F7077708B9001A
:10040000412183103808BC003708BB003608BA0009
:100410003508B900C001BF01BE010A30BD00E020AF
:100420007A08B8007908B7007808B6007708B500F0
:10043000B30BCF29080003081F39830061308316EE
:100440008F000F0803170908C039890003131F1212
:100450009F120030031788008312870188018901E9
:10046000831303137828831603170908C0398900FA
:1004700003131F129F120130031788008312031306
:100480001F179F1783169F1783121F149F149F18FF
:10049000472A83161E088312A1001E08A200A3018A
:1004A000A4012408B0002308AF002208AE002108F0
:1004B000AD00B401B301B2010530B100B6207A0835
:1004C000B0007908AF007808AE007708AD0083105F
:1004D0007A08BC007908BB007808BA007708B90030
:1004E000C001BF010330BE00FF30BD00E0207A082C
:1004F000A8007908A7007808A6007708A5000130B1
:10050000BA00BB002F21043003178D0000308F008C
:1005100003100A300313AD006D2141308400280818
:10052000B0002708AF002608AE002508AD00C421A2
:100530002408B0002308AF002208AE002108AD0057
:10054000B401B3010130B2000E30B100B6207A0818
:10055000B0007908AF007808AE007708AD008310CE
:100560007A08BC007908BB007808BA007708B9009F
:10057000C001BF010330BE00FF30BD00E0207A089B
:10058000AC007908AB007808AA007708A900013010
:10059000BA000230BB002F210B3003178D00003052
:1005A0008F00031008300313AD006D21413084002B
:1005B0002C08B0002B08AF002A08AE002908AD00B7
:0C05C000C4216430BA001120462A6300F8
:04400E00A42CFF3FA0
:00000001FF
;PIC16F887
;CRC=79D8  CREATED="11-May-20 16:46"
