:1000000001308A00ED290000D6376C3A6135651D54
:10001000A012CC3A00004137E73AEC373A102526D7
:1000200075004122431DA012CC3A000031308400FB
:100030008313000803192A280130F800F701F70B91
:100040001F28F80B1E284A30F700F70B2528282810
:10005000800B1C280800380EF039F7000F30080517
:1000600077048800000008143528081008000808E4
:10007000F700080E0F39F8000800831608108810E2
:100080000811831288100F3083160805F038880095
:100090008312081500000814000037207808B80003
:1000A000081000000814000037207808B700081076
:1000B0000F308316080588008312380EF700F030E1
:1000C000F70577083704F8007808B700B71B43280E
:1000D000351C88103518881400000811000008101D
:1000E000360EB7000F30B7053708B8002B2036089A
:1000F0000F39B700B8002B2008002830A8000C30BA
:10010000A9000130AA000630AB00081088100811C1
:100110000F308316080588000810881008110F306A
:100120008312B10016200130A7002708033C031CEE
:10013000A1280330B8002B200530B1001620A70AF3
:1001400095280230B8002B200530B1001620A701F9
:100150002708033C031CB828283027078400831392
:100160000008AC00B5012C08B6003D20A70AA8285D
:100170008A110A12052A1030AB00F701FA01A80C07
:10018000A70C031CC9282908F7070318FA0A2A082C
:10019000FA07FA0CF70CF90CF80CAB0BBF280800A7
:1001A000F801F901F701FA012C08031DDA282B08E0
:1001B0000319F4281030AD000310A90DAA0DF70D96
:1001C000FA0D2C087A02031DE7282B087702031C7E
:1001D000F0282B08F702031CFA032C08FA02031478
:1001E000F80DF90DAD0BDC280800320BF828FB28C0
:1001F0004030B300FC28B30101303102B3073308AB
:100200008038B400B5013408B6003D20080030083D
:10021000073A031915290B3A03191A29063A031943
:100220002229023A031928292D290130B100B200F0
:10023000F5203229B5010130B6003D200230B10071
:10024000162032290130B1000230B200F5203229E7
:10025000B5011030B6003D2032290130B50030081C
:10026000B6003D2008000B08A8008B138316031767
:100270008C170C140000000083120313A81B8B17AB
:1002800003186A2903170C087F390313A800031702
:100290000D080313A90003170F080313AA00280869
:1002A000B0000721290803178D0003132A0803173C
:1002B0008F0003130B08AB008B13831603178C17E7
:1002C0000C140000000083120313AB1B8B17A70B49
:1002D0006A29892903170C0D0E0D7F390313A80015
:1002E00003170D080313A90003170F080313AA002F
:1002F0002808B0000721290803178D0003132A08D6
:1003000003178F008D0A03198F0A03100313A70B1D
:1003100033290800AF010408AE002F10831B2F14EF
:10032000280EF038AA00AA07E23EAB00323EAD002C
:1003300028080F39AB07AB07AD07E93EAC00AC07A7
:10034000AC07270E0F39AC07AD07AC0DAD0DAD09ED
:10035000AD0D27080F39AD07AA0D0730A9000A30E7
:10036000AD07AC03031CB029AC07AB03031CB429D5
:10037000AB07AA03031CB829AA07A903031CBC29BD
:1003800029308400831307302E052E1384072D3067
:10039000040203192E170008F700031DD7292E1B8E
:1003A000D7292E1AE929AE19D7292030DA29AE1516
:1003B0002E123030F707A8010408A7002810831B6D
:1003C00028147708B0000721270884008313281811
:1003D0008317840A2E1FC729080003081F398300CA
:1003E000613083168F000F0803170908C039890090
:1003F00003131F129F120030031788008312870116
:1004000088018901831303137D28831603170908C4
:10041000C039890003131F129F120130031788008F
:10042000831203131F179F1783169F1783121F141E
:100430009F149F18192A83161E088312A1001E08F4
:10044000A2002208A8002108A7000130AA000E304F
:10045000A900BB207908A8007808A7007908AA009D
:100460007808A9000330AC00FF30AB00D020790839
:10047000A4007808A3002208A8002108A700AA0168
:100480000530A900BB207908A8007808A7007908E2
:10049000AA007808A9000330AC00FF30AB00D020E0
:1004A0007908A6007808A5000C30B00007210130BB
:1004B000B100B200F520043003178D0000308F002A
:1004C000031009300313A7003321103084002608DD
:1004D000A8002508A7008A210130B1000230B2002F
:1004E000F5200B3003178D0000308F00031008300B
:1004F0000313A7003321103084002408A800230828
:10050000A7008A210430A700FA30B1001620A70BFB
:10051000842A0C30B00007210130B100B200F52070
:10052000113003178D0000308F00031005300313C6
:10053000A7003321103084002208A8002108A7005A
:100540008A210430A700FA30B1001620A70BA32A95
:04055000182A630002
:04400E00A42CFF3FA0
:00000001FF
;PIC16F887
;CRC=D5AA  CREATED="10-May-20 00:05"
